:107E0000112484B714BE81FF02D185E080938100E4
:107E100082E08093C00088E18093C10096E0909357
:107E2000C20090E19093C400809360008EE0809344
:107E30006000259A8CE320E33CEF91E030938500CD
:107E40002093840096BBB09BFECF1D9AA8958150CD
:107E5000A9F7D0E0C0E098E1E92E28E0D22ECC24AA
:107E6000C39435E0932E41E1842E53E0F52EAAD041
:107E7000813481F4A7D0182FB1D0123819F484E0DE
:107E80009AD096C0113819F484E095D091C083E05F
:107E900092D08EC0823419F484E1ACD089C085348C
:107EA00019F485E0A7D084C0853549F48BD0C82F5C
:107EB000D0E088D0D82BCC0FDD1F90D079C086358C
:107EC00029F484E097D080E076D072C0843609F03F
:107ED00045C078D077D0782E75D000E011E0C1157C
:107EE00080E7D80730F4FE01F7BEE89500E011E026
:107EF00000C05801FFEFAF1ABF0A64D0F8018083B9
:107F000085017A10F6CFC115F0E7DF0718F0FE0102
:107F1000F7BEE89563D007B600FCFDCFFE01A0E0F8
:107F2000B1E001C0D9019C919D012E5F3F4F119698
:107F30008C9111978927982789270C01C7BEE8954E
:107F400011243296AE37B14069F7FE0197BEE8952D
:107F500007B600FCFDCF87BEE8952AC08437A9F498
:107F600031D030D0B82E2ED039D0AB2CFE018F01BD
:107F70000F5F1F4F84911FD0AA94F801A110F7CF73
:107F80002196BA94CB0DD11D13C0853741F426D06C
:107F90008EE111D085E90FD08FE00DD009C0813579
:107FA00031F4E0926000D092600018D001C016D089
:107FB00080E101D05CCF9091C00095FFFCCF809311
:107FC000C60008958091C00087FFFCCF8091C0005B
:107FD00084FD01C0A8958091C6000895F3DF80322A
:107FE00039F088E18093600088E080936000FFCFE3
:107FF00084E1E1CFCF93C82FE5DFC150E9F7CF91FE
:10800000EDCFE0E6F0E098E1908380830895E0E62C
:0E801000F0E088E180831082EE27FF270994BC
:027FFE00040479
:0400000300007E007B
:00000001FF
