:107E0000112484B714BEA89518E1109360009EE079
:107E10009093600095E09093810081FF8DC062E0B7
:107E200082E090D082E08093C0001093C10086E091
:107E30008093C20085E18093C40001E023E0D22E4C
:107E400035E0C32E41E1B42EA7D0813429F4A4D06B
:107E5000AFD083E09AD06DC0853741F4A9D08EE1D0
:107E600094D085E992D08FE090D063C0823421F421
:107E700084E1A5D09DD05DC0853421F485E09FD0FC
:107E800097D057C0863521F484E099D091D051C065
:107E9000853541F481D0C82F7FD0D82FCC0FDD1F7E
:107EA00087D047C0843609F031C076D075D0A82E6F
:107EB000182F169571D0E12CFF24F3946DD0F701A3
:107EC00081937F01AE12FACF73D0FE01A0E0B1E042
:107ED0009C9111968C911197892798278927129642
:107EE0000C0107BFE89511243296115089F7FE0165
:107EF000D7BEE89507B600FCFDCFFE01C7BEE895EA
:107F000007B600FCFDCFB7BEE89513C0843761F417
:107F100043D042D0182F40D04BD0FE0102C08591F3
:107F200034D01150E0F705C0813511F441D001C0C3
:107F30003FD080E12AD088CF63E082E003D01CD01C
:107F400090E080E094B121E030E001C0220F6A951A
:107F5000EAF7322F292B24B94CE35BEF21E0509351
:107F600085004093840026BBB09BFECF93B1932B3A
:107F700093B98150A1F70895A895E0E6F0E088E173
:107F800080831082EE27FF2709949091C00095FF0F
:107F9000FCCF8093C60008958091C00087FFFCCF7E
:107FA0008091C00084FD01C0A8958091C60008950D
:107FB000F3DF803211F484E1E8CF85E1FDCFCF9388
:0E7FC000C82FC15010F4CF910895E6DFFACF1C
:0400000300007E007B
:00000001FF
