:107E0000112494B714BEA89588E1809360002EE0F9
:107E10002093600025E02093810091FF80C092E0D4
:107E20009093C0008093C10086E08093C20085E1FA
:107E30008093C400D0E0C0E0DD24D39493E0C92E49
:107E400025E0B22E31E1A32E97D0813429F494D0CD
:107E50009FD083E08AD060C0853741F499D08EE10D
:107E600084D085E982D08FE080D056C0823421F45E
:107E700084E195D08DD050C0853421F485E08FD039
:107E800087D04AC0863521F484E089D081D044C0AF
:107E9000853541F471D0C82F6FD0D82FCC0FDD1F9E
:107EA00077D03AC0843629F567D066D0182F16955A
:107EB00063D07E0161D0082F5FD0982F802FF7010B
:107EC0000C01D7BEE8951124F2E0EF0EF11C115021
:107ED00089F75ED0FE01C7BEE89507B600FCFDCF6E
:107EE000FE01B7BEE89507B600FCFDCFA7BEE8953A
:107EF00013C0843761F440D03FD0182F3DD048D014
:107F0000FE0102C0859131D01150E0F705C08135E6
:107F100011F43ED001C03CD080E127D095CF1CD0D9
:107F200090E080E094B121E030E001C0220F6A953A
:107F3000EAF7322F292B24B94CE35BEF21E0509371
:107F400085004093840026BBB09BFECF93B1932B5A
:107F500093B98150A1F70895A895E0E6F0E088E193
:107F600080831082EE27FF2709949091C00095FF2F
:107F7000FCCF8093C60008958091C00087FFFCCF9E
:107F80008091C00084FD01C0A8958091C60008952D
:107F9000F3DF803211F484E1E8CF85E1FDCFCF93A8
:0E7FA000C82FC15010F4CF910895E6DFFACF3C
:0400000300007E007B
:00000001FF
